:020000040800F2
:10800000B806002081820008D3880008CB880008C9
:10801000CF88000889860008A589000800000000B4
:10802000000000000000000000000000DB880008E5
:108030003388000800000000D78800080189000884
:108040009B8200089B8200089B8200089B8200089C
:108050009B8200089B8200089B8200089B8200088C
:108060009B8200089B8200089B8200089B8200087C
:108070009B8200089B8200089B8200089B8200086C
:108080009B8200089B8200089B8200089B8200085C
:10809000AD8600089B8200088D8600089B82000840
:1080A0009B8200089B8200089B8200089B8200083C
:1080B0009B8200089B8200089B8200089B8200082C
:1080C0009B8200089B8200089B8200089B8200081C
:1080D0009B8200089B8200089B8200089B8200080C
:1080E0009B8200089B8200089B8200089B820008FC
:1080F0009B8200089B8200089B8200080000000011
:108100009B8200089B8200089B8200089B820008DB
:108110009B8200089B8200089B8200089B820008CB
:108120009B8200089B8200089B8200089B820008BB
:108130009B8200089B8200089B8200089B820008AB
:108140009B8200089B8200089B8200089B8200089B
:108150009B8200089B820008000000009B820008B0
:108160009B8200089B8200089B8200089B8200087B
:108170009B8200089B820008000000009B82000890
:108180009B8200089B8200089B8200089B8200085B
:108190009B8200089B820008000000000000000095
:1081A00000000000000000000000000000000000CF
:1081B0009B820008000000009B8200080000000075
:1081C00000000000000000000000000000000000AF
:1081D0000000000000000000000000009B8200087A
:1081E00000F002F800F03CF80AA090E8000C82448D
:1081F0008344AAF10107DA4501D100F031F8AFF26A
:10820000090EBAE80F0013F0010F18BFFB1A43F074
:10821000010318470829000028290000103A24BF4C
:1082200078C878C1FAD8520724BF30C830C144BFDB
:1082300004680C607047000000230024002500261D
:10824000103A28BF78C1FBD8520728BF30C148BFB9
:108250000B6070471FB502F043FC1FBD10B510BD89
:1082600000F0D1F81146FFF7F5FF01F0C7FC00F070
:10827000EFF803B4FFF7F2FF03BC00F096FB000039
:108280000948804709480047FEE7FEE7FEE7FEE7AA
:10829000FEE7FEE7FEE7FEE7FEE7FEE704480549E6
:1082A000054A064B7047000005890008E181000877
:1082B000B8000020B8060020B8020020B802002054
:1082C000704753EA020C00F069802DE9F04B4FF043
:1082D0000006002B1FBFB3FA83F503FA05F424FA56
:1082E00005F65E4012BF1643B2FA82F502FA05F4B3
:1082F000C5F120051EBF22FA05FC44EA0C04203516
:1083000056EA044C4FEA144418BF641C4FF00008AE
:108310004FF00009904271EB030C39D3002919BFCB
:10832000B1FA81F701FA07F6B0FA80F700FA07F61A
:10833000C7F120071EBF20FA07FC46EA0C062037CB
:10834000B6FBF4FCA7EB0507103F07F01F0BCBF1C2
:1083500020060CFA0BFB2CFA06F644BFB3460026A7
:10836000202FA4BF5E464FF0000B5BEA060C08BF4F
:108370004FF0010B19EB0B09ABFB027C48EB060835
:10838000C01B06FB02CC0BFB03CC71EB0C01C1E75D
:108390000B46024641464846BDE8F08B13B54FF008
:1083A00000004FF00001AFF30080BDE81C407047B3
:1083B0004FF0000200B5134694469646203922BF7E
:1083C000A0E80C50A0E80C50B1F12001BFF4F7AFC9
:1083D000090728BFA0E80C5048BF0CC05DF804EBAB
:1083E000890028BF40F8042B08BF704748BF20F819
:1083F000022B11F0804F18BF00F8012B7047704717
:10840000704770477047754600F02CF8AE4605007F
:108410006946534620F00700854618B020B5FFF79F
:108420003DFFBDE820404FF000064FF000074FF041
:1084300000084FF0000B21F00701AC46ACE8C00982
:10844000ACE8C009ACE8C009ACE8C0098D4670478B
:1084500010B50446AFF300802046BDE81040FFF79A
:1084600008BF000000487047540000201CB50121DF
:108470004FF4401000F088FE684601F065F80120D6
:108480008DF8070000208DF8040002208DF806000A
:108490004FF4C050009000208DF805006946334825
:1084A00001F05CF809220B21304801F094F8092210
:1084B0000C212E4801F08FF8112000F035FE012824
:1084C00001D000201CBD0121294800F05DFE0221E1
:1084D000002000F0D5FD0121264800F0AEFC4FF44D
:1084E0007A71244800F02CF90021224800F09DFA0E
:1084F0000021204800F0A6FC00211E4800F003FCEB
:1085000000211C4800F0F5FB03211A4800F090FC04
:108510000021184800F05AFB0021164800F08DFC9D
:1085200000221146142001F0E9FB0022114616201A
:1085300001F0E4FB012210210E4800F02FFB012284
:1085400020210C4800F02AFB01224021094800F0BC
:1085500025FB01228021074800F020FB01221102A7
:10856000044800F01BFB0120ACE7000000000240C3
:108570001900400000640040F0B587B007460C4683
:1085800015461E460121384600F057FC01A800F0B0
:1085900051FA00218DF8141000208DF80800049580
:1085A00001940F218DF8161008208DF80A00012182
:1085B0008DF8151000208DF809008DF81A108DF82F
:1085C0000E0000218DF817108DF80B008DF8181093
:1085D0008DF80C0001218DF819108DF80D0001AAFD
:1085E0003146384600F052FA01223146384600F052
:1085F00037FA0021384600F081FB0021384600F0B0
:108600001CFC07B0F0BD2DE9F04194B080460E4649
:1086100017461D464C2101A8FFF7CAFE019600200F
:108620008DF808008DF809008DF80B008DF80C000E
:108630008DF80A50082D01DD082000E02846054687
:10864000002405E0395D0DF10D000155601CC4B238
:10865000AC42F7DB00BF01AA0021404600F034FC29
:108660000128F8D11021404600F0F1FB00BF08219D
:10867000404600F08CFA0128F9D10821404600F06C
:1086800084FA14B0BDE8F08100BFFEE710B54FF4E6
:108690008071054800F08FFA20B14FF480710248D4
:1086A00000F073FA10BD00000064004000B595B002
:1086B0008021214800F07FFA08B380211E4800F095
:1086C00064FA16E040F2FF710098884206D19DF8E6
:1086D00006100DF10A0000F09DFF0AE0174900980E
:1086E0000968884205D19DF806100DF10A0001F0D5
:1086F000ADF96946104800F00BFB0028E2D11021CB
:108700000D4800F058FA18B110210B4800F03DFA5E
:108710002021094800F04FFA18B12021064800F046
:1087200034FA4021044800F046FA18B140210248CA
:1087300000F02BFA15B000BD0064004004000020DA
:108740003EB505460C460121284600F076FB6846FA
:1087500000F02CF9B4F5FA7F25D006DC642C48D063
:108760007D2C3AD0FA2C50D12AE0B4F5487F0ED0B7
:10877000B4F57A7F49D101208DF800009020ADF842
:10878000020030208DF804008DF801003EE0012049
:108790008DF80000B420ADF802003C208DF80400F4
:1087A0008DF8010032E001208DF800004FF4907048
:1087B000ADF8020060208DF804008DF8010025E07E
:1087C00002208DF800004FF49070ADF80200602098
:1087D0008DF804008DF8010018E003208DF80000EA
:1087E000C001ADF8020080208DF804008DF8010072
:1087F0000CE010208DF800005A20ADF802001E2079
:108800008DF804008DF8010000E000BF00BF0020DB
:10881000ADF806008DF808008DF805008DF8090008
:108820006946284600F0D1F80021284600F005FBF3
:108830003EBD70472DE9F04106460C460027002555
:1088400000F05AFEC4F30A0008B9E00A01E0E00AA9
:10885000401C0746002509E04FF4006101FB05605C
:1088600000F02AFE032800D002E06D1CBD42F3D3C5
:1088700000BF00F0EBFDBD4202D20120BDE8F08157
:108880000020FBE72DE9F04105460E46174600247F
:1088900000F032FE00BF0CE03159281900F038FE1C
:1088A000032800D007E028593159884200D002E05F
:1088B000241DBC42F0D300BF00F0C8FDBC4202D270
:1088C0000020BDE8F0810120FBE700BFFEE700BF0C
:1088D000FEE700BFFEE770477047704731B50024E0
:1088E00004210648FFF7A6FF04462CB90422694676
:1088F0000248FFF7C7FF0446204638BD0060000865
:108900007047000010B52448006840F47000224908
:108910000860012000F0A0FB2048006820F0010062
:10892000401C1E49086000BF1C480068C0F340009E
:108930000028F9D019480830006820F003001749D2
:108940000831086000BF154808300068C0F3810096
:108950000028F8D111480068114908400F49086003
:108960004FF080400D490831086040F2C170091F86
:1089700008604FF471200949A03108604FF41F00CE
:1089800006490C310860002000F066FB4FF00060E3
:1089900001498039086010BD88ED00E000380240D0
:1089A000FFFFF2FE00BFFEE7704770470121017034
:1089B0000C2141800421017141700621C1800221F6
:1089C000017241710721417270470A78521E036992
:1089D00062F3040303614A88921E436862F308034A
:1089E00043600A79521E436862F3164343604A7833
:1089F000521E436862F31E6343608A79921E836845
:108A000062F3070383600A7A521E836862F3164397
:108A100083604A79521E836862F31E6383604B7AD7
:108A2000026963F30F2202617047826A61F3D752D1
:108A30008262704700210160017141718171817210
:108A4000C17101724172491EC160012202744274F7
:108A50000F22827401228275C274027542757047BA
:108A600010B54AB101238B40446C43EA1444436C73
:108A700064F31F43436408E0436C1B0C01248C40E7
:108A8000A343446C63F31F44446410BD30B5436C8E
:108A900061F303034364137913B1012B0AD104E09A
:108AA00013885B05DB08836405E0136823F06043EB
:108AB000836400E000BF00BF1479C36C64F310430B
:108AC000C3645479C36C64F31453C3649479C36C62
:108AD00064F30303C364947AC36C64F31C73C364C8
:108AE000147AC36C64F39243C364D479C36C64F3A3
:108AF0005143C364547AC36C64F3DB63C3644FF0C3
:108B0000FF338365137913B1012B11D108E0846D14
:108B1000958940F2FF73AB4324EA8343836508E001
:108B2000836D6FF06044D568AC43A343836500E078
:108B300000BF00BF4FF0FF33C365147CC36D64F307
:108B40001043C365547CC36D64F31453C365947CB4
:108B5000C36D64F30303C365947DC36D64F31C7339
:108B6000C365147DC36D64F39243C365D47CC36D48
:108B700064F35143C365547DC36D64F3DB63C36524
:108B80004FF0FF330366436630BD416170470246D4
:108B9000002053690B4003B1012070472AB1D0F87F
:108BA00040310B43C0F8403104E0D0F840318B43F2
:108BB000C0F84031704702460020D2F840310B40E7
:108BC0001BB153690B4003B101207047072975D2CF
:108BD000DFE801F00415273B4D607500826A22F042
:108BE00040028262826A22F000428262826A22F03D
:108BF00020028262826A22F48042826276E0826A85
:108C000022F0400240328262826A22F00042826296
:108C1000826A22F020028262826A22F480428262A8
:108C200064E0826A22F0400240328262826A22F06C
:108C3000004202F100428262826A22F020028262D5
:108C4000826A22F48042826250E0826A22F040020C
:108C50008262826A22F000428262826A22F02002EC
:108C600020328262826A22F4804282623EE0826A1C
:108C700022F040028262826A22F000428262826AAC
:108C800022F020028262826A22F4804202F580424F
:108C900082622BE0826A22F0400240328262826A63
:108CA00022F000428262826A22F020028262826A9C
:108CB00022F4804202F58042826217E015E0826A67
:108CC00022F0400240328262826A22F0004202F1C7
:108CD00000428262826A22F020028262826A22F468
:108CE000804202F58042826200E0704700BF00BF10
:108CF000FBE7026961F31A6202617047826A61F3FD
:108D0000DB6282627047026961F31E720261704722
:108D10002DE9F0430246506F00F00F00DFF80C9190
:108D200019F8008002F1800401F10A05906AC0F38D
:108D3000016010B90020BDE8F083506FC0F300401F
:108D40000871087910B101280CD106E0106F40F2CB
:108D5000FF7909EA9040086006E0106F20F060405B
:108D6000086001E00020E6E700BF506FC0F300504C
:108D70004871506FC0F34040C871506FC0F38040DD
:108D80000872506FC0F3C0604872506FC0F3026049
:108D900081F84B00506FC0F3007081F84A00506FAB
:108DA00000F00F008871002316E02078E854208836
:108DB000C0F30729581C05F800902068C0F3074944
:108DC000981C05F800902068000E03F1030905F8CF
:108DD0000900241D181DC3B24345E6DB506FC2F8DD
:108DE0002401D2F828914FEA19404FEAE07900EBCC
:108DF00099794FEAA909A9F104091FFA89F602F144
:108E0000800050F82600C86402F1800006F10209D3
:108E100050F82900A1F8500002F12B0797F800C084
:108E20004CF010003870012085E700000AAB000804
:108E3000C26A61F30712C2627047826A61F3C712A5
:108E400082627047826A61F355528262704710B540
:108E5000024602F12903906AC0F3403008B10020B5
:108E600010BD02290FD004290CD0102920D1906AFE
:108E7000C0F3003018B9906AC0F3C02008B10020D8
:108E8000EEE717E000BF906AC0F3014008B9002088
:108E9000E6E7906AC0F3402038B9906AC0F38020BA
:108EA00018B9906AC0F3002008B10020D8E701E0AB
:108EB0000020D5E700BF187800F0E00444EA010084
:108EC00018700120CCE700002DE9F04303460D4661
:108ED0009079DFF8209119F8008003F1DC0C02F1A1
:108EE000090615B1012D0FD107E0986AC0F30030D3
:108EF00010B10020BDE8F08308E0986AC0F380500C
:108F000008B10020F6E701E00020F3E700BF03F11D
:108F10002904207800F0600747EAC5102070107916
:108F200010B101280CD105E010884005C008C3F835
:108F3000CC0007E0106820F06040C3F8CC0001E0EE
:108F40000020D7E700BF53F8CC0F92F8499040EAD1
:108F5000C97018600020586092F80490586869F34E
:108F60001040586092F80590586869F314505860A2
:108F700092F80690586869F30300586092F80890D8
:108F8000586869F39240586092F80790586869F3FE
:108F900051405860CC3B002113E0C81C305C4FEAC4
:108FA0000069881C305C49EA0049481C305C49EA89
:108FB000002016F8019040EA09004CF8040B081D47
:108FC000C1B24145E9DB002043F8D40F92F84A9042
:108FD000186869F31F60186000205860D43B012DA9
:108FE00005D103F12A04277847F0400020700120C2
:108FF00080E700000AAB000800B50346012000F03E
:109000002BF80548006863F3071003490860002047
:1090100000F022F800BD000008380240034909684A
:1090200060F38C21014A116070470000083802404B
:109030000349096860F34F31014A1160704700002D
:10904000083802400349096860F30E31014A116093
:1090500070470000A4380240012807D10749096879
:1090600021F030013031054A116005E003490968FB
:1090700021F03001014A116070470000A43802401D
:1090800020B1012809D0022815D10DE00B4A126841
:1090900061F31962094B1A600DE0084A126861F326
:1090A0009B62064B1A6006E0044A126861F31D7267
:1090B000024B1A6000BF00BF7047000068380240D2
:1090C00005282BD2DFE800F0030A11182100154A09
:1090D000126861F30002134B1A6020E0114A126813
:1090E00061F310420F4B1A6019E00E4A126861F3E7
:1090F00018620C4B1A6012E00A4A7032126861F36F
:109100000002084B70331A6009E0064A7432126894
:1091100061F30002034B74331A6000E000BF00BF2C
:10912000704700000038024010B501460020094B8E
:1091300003EB1142D2F8002801F01F040123A340E1
:109140001A4001F01F040123A3409A4200D000E01E
:10915000012010BD0030024030B50024002500E0A1
:10916000641C1120FFF7E0FF012802D0B4F5405F36
:10917000F6D31120FFF7D8FF012801D0002500E029
:109180000125284630BD000010B501290FD1104B34
:1091900003EB1042D2F8002800F01F040123A34083
:1091A0001A430B4C04EB1043C3F800280EE0084BA5
:1091B00003EB1042D2F8002800F01F040123A34063
:1091C0009A43034C04EB1043C3F8002810BD000081
:1091D0000030024030B50B4C246860F39E74094D9A
:1091E0002C602C46246861F38E142C602C46246875
:1091F00062F303042C602C46246863F313442C6050
:1092000030BD0000043802400349096860F316517C
:10921000014A1160704700000438024003490968A0
:1092200060F35D71014A116070470000043802402C
:1092300000B50120FFF710FF1D48006820F0010075
:10924000401C1B49086000BF19480068C0F340007B
:109250000028F9D016480830006820F003001449AF
:109260000831086000BF124808300068C0F3810070
:109270000028F8D10E4800680E4908400C490860E3
:109280004FF080400A490831086040F2C170091F60
:1092900008604FF471200649A03108604FF41F00A8
:1092A00003490C3108600020FFF7D6FE00BD000026
:1092B00000380240FFFFF2FE00B503460120FFF731
:1092C000CBFE0548006863F30100034908600020F5
:1092D000FFF7C2FE00BD00000838024002480068E7
:1092E000C0F38100704700000838024070B52DEDD2
:1092F000028B82B00446207800F003052078C0F38A
:109300008206A078617840EA012000B208EE100AD7
:10931000B8EEC80ADFED1F0A80EE201AF0EE418A8F
:1093200016B1012E1ED10EE09FED1B0A28EE800A19
:10933000BDEEC00A8DED010A01AA002146F27100BE
:10934000FFF732FB0EE09FED150A28EE800ABDEE16
:10935000C00A8DED010A01AA002146F27100FFF753
:1093600023FB00BF00BF85B1012D03D1012000F018
:10937000D7FD0AE0022D03D1022000F0D1FD04E068
:10938000032D02D1032000F0CBFD02B0BDEC028B17
:1093900070BD00000000C842ABCDB043F30BB53E3A
:1093A00010B5042001F03EF8074800680749B0FBFB
:1093B000F1F007490860084600684FF47A714843A5
:1093C0000449086010BD00000000002040420F006A
:1093D000280000202C000020002131E032280ADD86
:1093E000194A126832235A434FF0E0235A61A0F120
:1093F000320290B206E0144A126842434FF0E02372
:109400005A61002000224FF0E0239A611A46126947
:1094100042F001021A6100BF4FF0E022116901F031
:1094200001021AB101F48032002AF5D04FF0E02297
:10943000126922F001024FF0E0231A6100229A61C2
:109440000028CBD1704700002C00002003480068A2
:1094500020F080008030014908607047103C0240D5
:1094600003200B49096801F0010109B100200EE059
:1094700007490968C1F3800109B1012007E00449E7
:109480000968C1F3001109B1022000E00320704710
:109490000C3C024000B502460323FFF7E1FF034600
:1094A00003E0FFF7DDFF0346521E0BB9002AF8D197
:1094B00002B90423184600BD30B5044603250D4803
:1094C000006820F00200801C0A490860081D046042
:1094D000001F006820F04000403008608806FFF759
:1094E000D9FF05460348006820F0020001490860E2
:1094F000284630BD103C024002480349086003483A
:109500000860704723016745043C0240AB89EFCDFA
:1095100070B504460D4603260A48006820F0010095
:10952000401C0849086025604FF48010FFF7B2FF27
:1095300006460448006820F00100024908603046F1
:1095400070BD0000103C02404FF6FF710160002129
:109550008171017141710121C171704770B50A4675
:1095600000211488A3B233E003F001046CB3046853
:109570004E000325B540AC43046094794D00AC40E7
:1095800005682C430460446801258D40AC43446069
:10959000446815798D402C43446084684E0003254F
:1095A000B540AC438460D4794D00AC4085682C4311
:1095B0008460C4684E000325B540AC43C460547950
:1095C0004D00AC40C5682C43C4605B104C1CA1B27C
:1095D000002BC9DC70BD70B51346002400224D0776
:1095E000ED0E03FA05F4CD104DB1426A4D07EE0EB3
:1095F0000F25B540AA4342EA0405456208E0026A25
:109600004D07EE0E0F25B540AA4342EA0405056258
:1096100070BD00002DE9FC4104460D462078FF286E
:1096200032D16078FF282FD1A07868BBE0788228FB
:109630002AD14FF000083248D0F800803148006845
:10964000404514D130A103C9CDE900012D4800885F
:10965000000A8DF803002B4800788DF804000523DC
:109660006A4640F2FF712A48FEF7CDFF0AE029A0C2
:1096700000680190042301AA40F2FF712448FEF71C
:10968000C2FF00BFBDE8FC816078217840EA012676
:109690001C480068864204D047F67F70864200D09E
:1096A000F0E7A07800B1EDE7E778032F04D0042FAE
:1096B0000BD0052F1FD113E0012017490870084671
:1096C0002168C0F80110C57116E002201249087027
:1096D000481C21680160A1888180401EC5710BE093
:1096E00003200D490870481C21680160A188818011
:1096F000401EC57100E000BF00BF00BFC2E7000010
:109700000060000804000020FFFF010000000000CE
:109710000064004080800180350000202DE9FC4776
:1097200004460D46207800F0030766782078C0F3E1
:109730008208002001908146B8F1000F33D1012E3C
:1097400033D1042D31D1E078A17840EA012ABAF56D
:10975000FA6F01DC504601E04FF4FA6003466420E2
:1097600093FBF0F083B200EE103AB8EE400ADFED62
:109770001C0A20EE200ABCEEC00A8DED000A6A46E3
:10978000002146F28300FFF70FF901AA002146F2FB
:109790008300FFF7A1F8BDF804000099884201D1C9
:1097A0004FF0010901E0BDE8FC87012F16D100F060
:1097B00081FA00F01F0040F080008DF8000080204A
:1097C0008DF800008DF801608DF8029003236A4641
:1097D000044801680448FEF716FF00BF00BFE2E737
:1097E00083F9224404000020006400402DE9FC417C
:1097F00007460C46062C01D0BDE8FC810125002659
:109800002846FFF76BF80520FFF7E6FD0E480668CF
:10981000012E0AD101200D490860012300220846CB
:1098200001680B48FEF7A8FE00E0E5E709A103C9BF
:10983000CDE9000106236A4640F2FF710448FEF7B5
:10984000E2FE00BFD8E7000000600008040000202E
:10985000006400407F7F01057F7F00002DE9F84311
:1098600004460F46062F01D0BDE8F88360792179C0
:1098700040EA01250026B0461DB140F2FF70854246
:1098800002D34FF0000814E02846FFF727F83220F3
:10989000FFF7A2FD1448006886B2AE4209D14FF02E
:1098A0000108124806600123002201681048FEF7F3
:1098B00063FE20788DF8000060788DF801000120AB
:1098C0008DF80200B8F1000F01D0042000E0002064
:1098D0008DF8030004236A4640F2FF710448FEF746
:1098E00092FE00BFC0E700000060000804000020F6
:1098F000006400402DE9F04186B006468846747841
:10990000002004900590039002909FED4A0A8DED8F
:10991000010A002700F0CEF900F01F0040F0A0007F
:109920008DF810008DF81140012C56DB042C54DC0E
:10993000012C06D0022C15D0032C24D0042C34D1B9
:1099400032E003AA002146F26400FEF7C5FF9DED58
:10995000030AB8EEC00ADFED380A20EE200A8DEDCA
:10996000010A23E003AA002146F26C00FEF7B4FFCF
:109970009DED030AB8EEC00ADFED300A20EE200AA2
:109980008DED010A12E003AA002146F27800FEF7ED
:10999000A3FF9DED030AB8EEC00ADFED290A20EE11
:1099A000200A8DED010A01E000E000BF00BF0025A4
:1099B000019D280E8DF81200280C8DF81300280A3E
:1099C0008DF81400E8B28DF81500062304AA1D488E
:1099D00001681D48FEF717FE28E0052C26DB072C42
:1099E00024DC052C13D102AA002146F28300FEF7E5
:1099F00073FF9DED020AB8EE400ADFED0F0A20EE7C
:109A0000200ABDEEC00A10EE100A07B200E000BF47
:109A100000BF380A8DF81200F8B28DF81300042345
:109A200004AA084801680848FEF7EDFD06B0BDE845
:109A3000F081000000000000DB0FC93A0000703C1C
:109A4000F855393B040000200064004070B505461D
:109A50000C4628784611082E27D2DFE806F0040AC3
:109A6000101626261C21082C02DB284600F0EEFCEE
:109A70001CE0082C02DB284600F0C2F916E0072C97
:109A800002DB284600F0A6FB10E0032C02DB284690
:109A9000FFF72CFC0AE021462846FFF73FFE05E0D1
:109AA00021462846FFF726FF00E000BF00BF70BD3B
:109AB000F0B589B004460E46042E01D009B0F0BDC1
:109AC00000250020089007900027069006200590AA
:109AD0002320049000200390029005AA002146F262
:109AE0006000FEF761FF64270DE008AA002146F23E
:109AF0006100FEF7F1FE9DF82000062800D106E087
:109B00000120FFF769FC381EA7F10107EDD100BF66
:109B10009DF82000062846D104AA002146F29800AC
:109B2000FEF742FF03AA002146F27C00FEF73CFF4D
:109B30000F20069006AA002146F24000FEF734FFEF
:109B4000C8270FE007AA002146F24100FEF7C4FE35
:109B5000BDF81C0000F06F00272800D106E00120AE
:109B6000FFF73AFC381EA7F10107EBD100BFBDF8A3
:109B70001C0000F06F00272815D10F20069006AAC0
:109B8000002146F24000FEF70FFF0520FFF724FCFE
:109B90001F20069006AA002146F24000FEF704FFAF
:109BA000C820FFF719FC0F20069006AA002146F2F4
:109BB0004000FEF7F9FE3DB10120029002AA00210B
:109BC00046F26000FEF7F0FE20788DF80400607821
:109BD0008DF8050001208DF806000DB1032000E08E
:109BE00000208DF80700042301AA40F2FF7102480B
:109BF000FEF709FD00BF61E7006400401CB527A126
:109C000003C9CDE900014FF40041080300F0EEF86C
:109C100000F040FBFFF7C4FB032000F0D3F821481D
:109C2000006821490860FEF721FC00231A4640F233
:109C3000FF711E48FEF7A0FC012300221A480168AC
:109C40001A48FEF799FC28E019480078012809D144
:109C50001748C179401CFFF72BFF15480021016010
:109C600041601AE012480078022809D11048C179F1
:109C7000401CFFF7F3FD0E480021016041600CE03D
:109C80000B480078032808D10948C179401CFFF728
:109C9000ADFD0748002101604160D5E7122334453E
:109CA000567889100060000804000020006400401D
:109CB0003500002008B5002000906A46002146F2D9
:109CC0003F00FEF709FEBDF80000A0F5485010382F
:109CD00078B1102809D0A0F58040F33838B1A0F54C
:109CE0000C40043838B9022008BD0320FCE70420EA
:109CF000FAE70620F8E70820F6E700002DE9F0472C
:109D00000B4614464FF0000C00BF2C4A1268C2F3F9
:109D100002211D4626460A46C2F10709B9F1040F81
:109D200002D94FF0040901E0C2F10709C84602F167
:109D30000409B9F1070F02D24FF0000901E0A2F1C6
:109D400003094F464FF0010909FA08F9A9F1010981
:109D500009EA050909FA07F94FF0010A0AFA07FAB0
:109D6000AAF1010A0AEA060A49EA0A09CC460146AA
:109D70006246002904DB15072E0E114D6E5407E0D4
:109D800015072F0E0D4D0C3501F00F06361FAF5580
:109D900000BF014600290DDB00BF00BF01F01F0519
:109DA0000122AA404D09AD0005F1E025C5F80021CA
:109DB00000BF00BF00BFBDE8F08700000CED00E071
:109DC00000E400E000BF00F00702064B19684FF600
:109DD000FF031940044B0B4343EA0221014B196076
:109DE00000BF70470CED00E00000FA05024A0A408F
:109DF0000243024B1A60704780FFFF1F08ED00E02E
:109E000070B52DED048B86B004460020059005AAA0
:109E1000002146F26100FEF75FFD2078C006617800
:109E200040EAC140A17840EAC120E17840EAC1009F
:109E3000217940EA51162079C006400C617940EA48
:109E40008100A17940EA911008EE100AA0798006FD
:109E5000000DE17940EAA10008EE900AE07900F0F7
:109E600003059FED2B0A8DED040A0496B8EE480A0F
:109E7000F2EE040A80EE201AB0EE419AB8EE680ABB
:109E8000F2EE040A80EE201AF0EE419A9DED040AEB
:109E9000DFED200A20EE200ABDEEC00A8DED030A98
:109EA0009FED1D0A29EE000ABDEEC00A8DED020AE3
:109EB0009FED1A0A29EE800ABCEEC00A8DED010A58
:109EC00003AA002146F27A00FEF76EFD02AA0021E5
:109ED00046F2FF00FEF768FD01AA002143F24C6044
:109EE000FEF762FD85B1012D03D1012000F018F8C5
:109EF0000AE0022D03D1022000F012F804E0032D45
:109F000002D1032000F00CF806B0BDEC048B70BD4C
:109F100000000000610B36418988884200007A44C5
:109F20002DE9F04F2DED068B89B0064600200790F5
:109F30000890069005900490002503900024FFF7F8
:109F4000B9FE0290029866F35F10C0B28DF81C0053
:109F500006AA002146F26400FEF7BEFC05AA002115
:109F600046F26C00FEF7B8FC04AA002146F2780025
:109F7000FEF7B2FC03AA002143F22150FEF7ACFC2D
:109F8000062E7DD2DFE806F07C0383C1FDFC9DED4B
:109F9000060AF8EEC00A9FED821AB2EE090A00EE38
:109FA000810ADFED800A20EE200ABCEEC00A10EE26
:109FB000100A87B29DED050AF8EEC00A9FED781AE7
:109FC000B3EE020A00EE810ADFED770A20EE200AE6
:109FD000BCEEC00A10EE100A1FFA80F8BDF910009E
:109FE00000EE100AF8EEC00A9FED701A9FED700A9D
:109FF00000EE810ADFED6F0A20EE200ABCEEC00AF7
:10A0000010EE100A1FFA80F9284600F06AFB41ECB6
:10A010001A0B9FED690B53EC102B00F079FB41EC10
:10A02000190B9FED670B53EC102B00F085FA41ECF8
:10A03000180B00F029FB00F0FF0A3221039801EB16
:10A04000400000F0FF0B38128DF81D00F8B28DF8BB
:10A050001E00C8F307108DF81F0008F00F00C9F3A9
:10A06000032141EA00108DF8200009F0FF008DF86F
:10A0700021008DF822A08DF823B0082307AA00E064
:10A0800084E0514801685148FEF7BDFA81E09DED3A
:10A09000060AB8EEC00ADFED420A20EE200A8DED76
:10A0A000010ABDF9100000EE100AB8EEC00ADFED9B
:10A0B0003F0A20EE200ADFED3E0A20EE200ABDEE28
:10A0C000C00A10EE100A07B2019C200E8DF81D0088
:10A0D000200C8DF81E00200A8DF81F00E0B28DF8CC
:10A0E0002000380A8DF82100F8B28DF822003220C5
:10A0F00000EB4500C0B28DF82300082307AA3248C0
:10A1000001683248FEF77FFA43E09DED050AB8EE9C
:10A11000C00ADFED2F0A20EE200A8DED010ABDF9FD
:10A12000100000EE100AB8EEC00ADFED200A20EEA3
:10A13000200ADFED1F0A20EE200ABDEEC00A10EE55
:10A14000100A07B2019C200E8DF81D00200C8DF81E
:10A150001E00200A8DF81F00E0B28DF82000380A9A
:10A160008DF82100F8B28DF82200322000EB450076
:10A17000C0B28DF82300082307AA1348016801E044
:10A1800006E004E01148FEF73EFA02E000BF00BF1F
:10A1900000BF00BF09B0BDEC068BBDE8F08F00002A
:10A1A000DB0FC93A66D623450080E342F855393BB8
:10A1B0000000C842CDCCA3419A9999999999C93F79
:10A1C000000000000000494004000020006400403E
:10A1D0000000703C70B52DED028B84B004462078F1
:10A1E00000F003059FED280A8DED030A6078000654
:10A1F000A17840EA0140E17840EA0120217940EA73
:10A200000106A079617940EA012008EE100A039660
:10A21000B8EE480AF2EE040A80EE201AF0EE418A07
:10A220009DED030ADFED190A20EE200ABDEEC00AFB
:10A230008DED020A9FED160A28EE800ABCEEC00AD8
:10A240008DED010A02AA002146F2FF00FEF7ACFBE9
:10A2500001AA002143F24C60FEF7A6FB85B1012D57
:10A2600003D10120FFF75CFE0AE0022D03D102209A
:10A27000FFF756FE04E0032D02D10320FFF750FE46
:10A2800004B0BDEC028B70BD0000000089888842DC
:10A2900000007A4410B5FEF7CBFF40F25510244978
:10A2A000086001212348FEF76FFF2348006920F072
:10A2B0000300C01C2049086101210846FEF700FF89
:10A2C00000BFFEF749FF0028FBD0032301224821ED
:10A2D0001046FEF77FFF0420FEF796FF0120FEF7F1
:10A2E0009DFF01210220FEF7EBFE00BF1920FEF7C3
:10A2F0001BFF0128FAD10020FEF77EFE0520FEF7A5
:10A30000A1FE0020FEF794FE0020FEF787FE01204C
:10A31000FEF7A2FE0220FEF7CFFF00BFFEF7DEFF32
:10A320000228FBD10020FEF797FE00F007F810BDD1
:10A33000003C02401C004000007000402DE9FC5F22
:10A34000002400250026A146A246A3460020019035
:10A35000FEF7C4FF0090009820B101280FD002281A
:10A360003CD110E028480068C0F3803018B127487D
:10A370002749086002E027482549086032E026485E
:10A38000234908602EE020489C380068C0F380799B
:10A390001D489C380068C0F388141B489C3800682E
:10A3A00000F00F0518489C380068C0F303401B49B3
:10A3B0000E5CB9F1000F02D1DFF858A001E0DFF820
:10A3C00058A005FB06FCAAFB047001466246002368
:10A3D0003846FDF776FF0E49086003E00D480C494A
:10A3E000086000BF00BF084898380068C0F3031B2E
:10A3F0000B4810F80B000190054800680199C8400F
:10A4000003490860BDE8FC9FA0380240006CDC02F4
:10A410000000002000127A000024F400FAAA0008CC
:10A42000EAAA0008042808D14FF0E021096941F0A8
:10A4300004014FF0E022116107E04FF0E0210969CB
:10A4400021F004014FF0E0221161704710B52DEDAD
:10A450000A8B04462078C006000D617840EA61004E
:10A4600008EE100AA078617801F0010140EA0120AD
:10A4700008EE900A2079E17840EA012009EE100AFE
:10A4800060790001A17940EA211009EE900AE07993
:10A49000A17901F00F0140EA01200AEE100AB8EE9E
:10A4A000480ADFED1E0A20EE200AF0EE40AAB8EEC0
:10A4B000680ADFED1B0A20EE200AB0EE40BAF8EE83
:10A4C000490A9FED181AB2EE090A10EE810AF0EE61
:10A4D00040BAF8EE690A9FED141AB3EE020A10EEC4
:10A4E000810AB0EE40CAF8EE4A0A9FED101A9FEDBD
:10A4F000100A10EE810AF0EE40CA0E48C0ED00AA24
:10A5000080ED01BAC0ED02BA80ED03CAC0ED04CA05
:10A510000120FFF705FDBDEC0A8B10BDA10FFA3D30
:10A520002850203CC800C8390109103C410BB43DFB
:10A53000000034434000002010B591EA030F48BFEB
:10A5400083F0004300F1EA81841A71EB030C05D219
:10A55000121943EB0C03001B61EB0C01DFF824E143
:10A560004FEA1154A4EB135C1EEA430F18BF9EEA96
:10A57000445F73D023EA0E03DCF1200E21EA04517C
:10A5800043F4801332D322FA0CFE10EB0E0023FAB0
:10A590000CFE41EB0E01CCF1200E03FA0EFE10EB87
:10A5A0000E0051F10001B1F5801FCCF1200E32D226
:10A5B00001EB045112FA0EF2BDE8104058BF70478B
:10A5C000401C38BF5FEA420218BF7047002814BF22
:10A5D00020F0010041F100014FEA410313F5001F93
:10A5E00038BF7047A1F1C04100F08AB9012A43EB9E
:10A5F0000302ACF1200CDCF11F0E32BF4FF0000E55
:10A6000023FA0CF310EB030041EB0451B4EB115FA0
:10A61000D0D0A1EB045101F5801149085FEA300068
:10A6200001EB04510ED350F1000038BF12FA0EFEB8
:10A6300008D1BDE81040C9E7401C38BF5FEA4202BC
:10A64000CAD1C3E7BDE810404FEA410313F5001F2C
:10A6500038BF7047A1F1C04100F052B99EEA445F93
:10A6600008D011EA5E0FBDE8104004BF01F00041C0
:10A6700000207047BDE8104070B500F0F3F800BF4F
:10A6800064FBBE3E0000E0FF4FEA1153A3F5806378
:10A69000D3F11E03A8BFD3F1200C08DB4FF000421A
:10A6A00042EAC12252EA505232FA03F0704709429C
:10A6B0000BD4102BC4BF0020704703F5787CBCF18D
:10A6C000FF3F05D04FF0FF3070474FF0000070475C
:10A6D00070B500F0C7F800BF499224800020704791
:10A6E000F0E710F0004248BF4042B0FA80F310FAA1
:10A6F00003F10AD0C3F11D0303F580634FEA415013
:10A7000002EB035202EBD12170474FF0000070477B
:10A71000DFF848C170B51CEA111E1EBF1CEA1315F4
:10A720009EEA0C0F95EA0C0F00F06F8081EA03049B
:10A7300023EA4C134EEAD47E21EA4C1141F48011F5
:10A7400043F48013AE44A1FB024CA0FB0365AEF1C1
:10A750007F7E361955EB0C05A1FB034C4CF1000331
:10A76000A0FB021C16EB0C06654153F100030942E5
:10A7700018BF46F0010613F4007F0BD14FEA0331F6
:10A780004FEA0530340341EA155140EA16506FF0A4
:10A7900003020AE04FEAC3214FEAC520F40241EA6E
:10A7A000555140EA56506FF0020202EB2E4201EB87
:10A7B000025585EACE710AD05FEA440C18BF24F036
:10A7C000004450F1000041F1000120EAD47040F251
:10A7D000FE7C624500D270BDA84214BF4FF0804499
:10A7E0004FF04044002E08BF0024BEF1806FA8BF88
:10A7F000A1F1C041BDE8704080F282804FF00000BE
:10A8000001F1C04101F0004170479EEA0C0F0CEAD3
:10A81000131518BF95EA0C0F06D04FF0000081EA1F
:10A82000030E0EF0004170BD00F01CF88900013EDF
:10A8300000F007B800F009B84FEA430C5FEA5C5C2F
:10A8400008D081EA030100F05BB84FEA410C5FEAEF
:10A850005C5CF6D14FF00000014970470000FF0733
:10A860000000F87F0EF1020E2EF0030E5EF8046B6E
:10A87000364205D4012A43EB030515F5001F12D813
:10A88000012841EB010C1CF5001F0CD80ED14FEA3A
:10A89000D17C15F5001F0CEB4C0C0CF1020C08BF21
:10A8A0004CEBD37C04E04FF0080C01E04FEAD37C82
:10A8B0000CEB4C0526FA05F606F00706B6F1040C7B
:10A8C00006D20EEB860CBDE870404CF0010C6047E0
:10A8D000DFE80CF0090B02024FF000414FF00000DE
:10A8E000A1F5002170BD19461046012851EB010465
:10A8F00018BFD4F5001484BF002001F0004170BDE2
:10A900000808A0F500114FEA3101704710B591EA2F
:10A91000030F48BF83F000433FF516AE841A71EB76
:10A92000030C07D212198CF0004C43EB0C03001BF4
:10A9300061EB0C01DFF8A4E14FEA1154A4EB135CC6
:10A940001EEA430F18BF9EEA445F00F0B08023EA7E
:10A950006E03524221EA0451C3EB6E0338BF5B1E03
:10A96000DCF1200E25D322FA0CFE10EB0E0043FA88
:10A970000CFE41EB0E01CCF1200E03FA0EFE10EBA3
:10A980000E0051F10001CCF1200E29D412FA0EF282
:10A9900001EB0451BDE8104058BF7047401C1CBF7C
:10A9A000B2F1004F704700280CBF491C20F0010095
:10A9B000704712EB020E43EB030218BF4FF0010E7B
:10A9C0004EEA4202ACF1200CDCF11E0E54D943FADF
:10A9D0000CFE10EB0E0051F1FF31CCF11E0ED5D55F
:10A9E0000EF1010E12FA0EFE404141EB010101EBA6
:10A9F000445C5FEA5C5C10D910EBDE7001EB045143
:10AA000038BFBEF1004FBDE8104018BF70470028A6
:10AA10000CBF491C20F00100704730D24FEAD42C03
:10AA200011F5001124F400641BD0B1FA81F20B3A45
:10AA3000A41AA41ED2F12003914030FA03F3194363
:10AA4000904001EBCC71002C01EB0451BDE81040AB
:10AA5000A8BF704701F1C0414FF0000001F0004174
:10AA60007047B0FA80F310FA03F100D110BDE41A78
:10AA7000173C4805C90AE4E701EB045110BD491031
:10AA800001EB0451BDE810404FEA300002E04FF006
:10AA9000000170474A0008BF0042F8D0B2F5001F1D
:10AAA00028BF704701F000414FF0000070479EEA58
:10AAB000445F07D011EA5E0FBDE8104004BF0021DB
:10AAC00000207047BDE8104070B5FFF7CBFE00BF17
:10AAD00040DFF63E83F00041104670470000E0FF83
:10AAE0004FF04070E1EE100A7047000000000000D7
:10AAF0000000010203040607080901020406080A0F
:10AB00000C0E10121416181A1C1E00010203040564
:10AB10000607080C10141820304000003CAB000859
:10AB200000000020400000001C8200087CAB0008F0
:10AB300040000020780600003882000800127A00E9
:10AB400001000000000C0240000C0240000C02401A
:10AB500000200040008000000300300003003000AF
:10AB600003003000000000000000000000000000B2
:0CAB7000010000000000000000000000D8
:04000005080081E18D
:00000001FF
