:020000040800F2
:100000006815002031020008DB0D00080B0D000808
:10001000D70D00083D03000831180008000000005B
:10002000000000000000000000000000BD140008F7
:1000300041030008000000004702000839160008CC
:100040004B0200084B0200084B0200084B0200085C
:100050004B0200084B0200084B0200085103000845
:100060004B0200084B0200084B0200084B0200083C
:100070004B0200084B0200084B0200084B0200082C
:100080004B0200084B0200084B0200084B0200081C
:100090004B0200084B020008390400084B0200081C
:1000A0004B0200084B0200084B0200084B020008FC
:1000B0004B0200084B0200084B0200084B020008EC
:1000C0004B0200084B0200084B0200084B020008DC
:1000D0004B0200084B0200084B0200084B020008CC
:1000E0004B0200084B0200084B0200084B020008BC
:1000F0004B0200084B0200084B0200084B020008AC
:100100004B0200084B0200084B0200084B0200089B
:100110004B0200084B0200084B0200084B0200088B
:100120004B0200084B0200084B0200084B0200087B
:100130004B0200084B0200084B0200084B0200086B
:10014000610400084B0200084B0200084B02000843
:100150004B0200084B0200084B0200084B0200084B
:100160004B0200084B0200084B0200084B0200083B
:100170004B0200084B0200084B0200084B0200082B
:100180004B0200084B0200084B0200084B0200081B
:100190004B0200084B0200084B0200084B0200080B
:1001A0004B0200084B0200084B0200084B020008FB
:1001B0004B0200084B0200084B0200084B020008EB
:1001C0004B0200084B0200084B0200084B020008DB
:1001D0004B0200084B0200084B0200084B020008CB
:1001E0004B0200084B0200084B0200084B020008BB
:1001F0004B0200084B0200084B0200084B020008AB
:100200004B0200084B0200084B0200084B0200089A
:100210004B0200084B020008DFF810D000F07CF819
:1002200000480047C11D0008AFF30080681500209A
:100230000648804706480047FEE7FEE7FEE7FEE780
:10024000FEE7FEE7FEE7FEE7FEE7FEE73D160008F5
:10025000190200082DE9F05F0546002092469B46F2
:1002600088460646814640241BE0284641464746CC
:10027000224600F041F853465A46C01A914110D325
:1002800011461846224600F028F82D1A67EB01089F
:100290004F4622460120002100F01FF817EB00090D
:1002A0004E41201EA4F10104DFDC484631462A46B7
:1002B0004346BDE8F09F40EA01039B0703D009E0F5
:1002C00008C9121F08C0042AFAD203E011F8013B42
:1002D00000F8013B521EF9D27047202A04DB203A75
:1002E00000FA02F1002070479140C2F1200320FA89
:1002F00003F3194390407047202A04DB203A21FA87
:1003000002F00021704721FA02F3D040C2F120022E
:100310009140084319467047064C074D06E0E068D7
:1003200040F0010394E8070098471034AC42F6D33C
:10033000FFF776FFF41F00081420000800BFFEE757
:100340007047002100E0491C8142FCD37047000047
:1003500010B5022000F010F8012801D10249086010
:10036000022000F003F810BD2C00002001490860B5
:10037000704700001004014001460848006808402A
:10038000884201D00020704704480C3000680840C3
:10039000884201D00020F6E70120F4E70404014080
:1003A0008279002A3DD0234A126803689A43214B80
:1003B0001A601A1F126803689A431E4B1B1F1A60AB
:1003C0000279D1180A6803681A430A604279102A30
:1003D0000FD1184A0832126803681A43154B0833C4
:1003E0001A601A1F126803681A43124B1B1D1A6009
:1003F0001FE0104A0832126803689A430D4B083315
:100400001A601A1F126803689A430A4B1B1D1A6070
:100410004279084B1B1FD1180A6803681A430A6007
:1004200007E00279034B1B1FD1180A6803689A433F
:100430000A6070470404014010B54FF4007106488B
:1004400000F067F9012805D104490860410202481B
:1004500000F070F810BD0000005000403000002097
:1004600010B52021054800F054F9012805D10449B0
:1004700008602021014800F05DF810BD00540040E4
:100480002800002030B503460C461546164820408B
:1004900008B9002030BD986D204020B9D86D40F0DB
:1004A0000100D8650AE0986D2040A04204D1D86DC3
:1004B00040F00200D86501E00320D86504F4007024
:1004C00020B1D3F8E0002843C3F8E00004F48060D2
:1004D00020B1D3F8E4002843C3F8E40021461846CD
:1004E00000F010F90120D5E7FFFFCF3F2DE9F041E3
:1004F00005460E4617461C46D5F8C000C0F3054019
:1005000094FAA4F1B1FA81F1884202D80020BDE842
:10051000F081D5F8CC00204008B10020F7E794FA2C
:10052000A4F0B0FA80F33A463146284600F082F84B
:100530000120ECE70165704730B503460C46422CBC
:1005400005D103F1F000056825F07C510CE0402C4A
:1005500005D103F1A000056825F0FE4104E003F198
:10056000B000056825F0FE4141EA0261016030BD3E
:1005700030B502461D4C141BA40A1D4D55F82430FD
:100580000C68E4B91D684C6805EB8400CC68072C46
:100590000AD10D7B8C6844EAC5640D8A44EA05449F
:1005A0008D692C43046020E00D7B8C6844EAC564AF
:1005B0000D8A44EA05444D692C43046015E05D68EA
:1005C0004C6805EBC4000D7B0C6944EA457404607B
:1005D000001DCC68072C04D18D698C682C43046005
:1005E00003E04D698C682C43046030BD005000402E
:1005F0003C00002030B5039C41EA02051D43254321
:10060000C0F8805030BD012A03D1836D8B438365D0
:1006100002E0836D0B4383657047036A23F4702205
:100620000A4302627047036A23F003020A4302622C
:10063000704700002DE9F041044615461E46DFF8DC
:10064000B8C0A4EB0C0C4FEA9C2CDFF8B08058F833
:100650002C70D7F844C00CFB06FCD7F8188008EBC8
:100660008C00D1F800C0BCF1000F0CD1D1F810C043
:10067000D1F808804CEA080CB1F804804CEA884CA8
:10068000C0F800C00DE0D1F810C04CF0804CD1F89B
:1006900008804CEA080CD1F804804CEA080CC0F839
:1006A00000C0001D91F82080D1F81CC04CEA086CF5
:1006B000D1F818804CEA080CD1F814804CEA080CE8
:1006C000D1F80C804CEA080CC0F800C0001D0346AD
:1006D000002204E015F802C003F802C0521CDFF843
:1006E0002080D1F80CC008EB1C4C9CF800C094454D
:1006F000F0D8BDE8F0810000005000403C00002030
:10070000A01F0008426D0A4342657047C0F8D01030
:1007100070470246536D0B408B4201D0002006E02B
:10072000136D0B408B4201D0002000E00120704788
:100730000246402904D1D2F8A43003F07F0003E040
:10074000D2F8B43003F07F00704700002DE9F04389
:1007500004460D4698466748201A800ADFF89891AB
:1007600059F820300026402D2ED1D4F8A00000F4F6
:10077000FE0010B90020BDE8F083D4F8A40000F01A
:100780007F0008B90020F6E7D4F8A400C0F30526DE
:10079000D4F8A40000F08070B0F1807F0DD1D4F8BF
:1007A000A00000F00040B0F1004F06D1986A401E52
:1007B000B04201D8002600E0761C986B7043D3F855
:1007C000089009EB80013AE0412D2DD1D4F8B0001A
:1007D00000F4FE0008B90020CDE7D4F8B40000F022
:1007E0007F0008B90020C6E7D4F8B400C0F305269E
:1007F000D4F8B40000F08070B0F1807F0DD1D4F84F
:10080000B00000F00040B0F1004F06D1D86A401EA1
:10081000B04201D8002600E0761CD86B7043D3F8B4
:100820000C9009EB80010AE0186BA84201D8002067
:10083000A1E7186C6843D3F8109009EB80010868B1
:1008400000F080401060106820B90868C0F38A404A
:10085000506003E0086820F060405060086800F0D5
:1008600000509060086800F000401061091D088881
:1008700080B2D061086800F47020D060086800F48D
:1008800080105061086800F4001090610868C0F39F
:1008900006601062086800F000405062091D8C4636
:1008A000002704E01CF8070008F807007F1CDFF8A9
:1008B0004C90D06809EB10400078B842F2D8402D37
:1008C00002D1C4F8A86012E0412D02D1C4F8B8608A
:1008D0000DE0202D04D20120A840C4F8980006E0C5
:1008E00005F01F09012000FA09F0C4F89C0001205E
:1008F00041E70000005000403C000020A01F00081D
:10090000F0B585B005460C46142259A16846FFF79C
:10091000D2FCA86920F01000A861002706E0594821
:10092000874202D9002005B0F0BD7F1CA86900F005
:1009300008000828F3D0A86940F00100A86100274A
:1009400005E05048874201D90020ECE77F1CA869E8
:1009500000F001000028F4D0A86940F00200A8616E
:10096000AE6994F86800012802D126F0400601E043
:1009700046F0400694F86900012802D146F480460A
:1009800001E026F4804694F86A00012802D126F49A
:10099000805601E046F4805626F4407620680643EF
:1009A00026F0A40660680643AE61207900F080005E
:1009B000802804D1286940F01000286103E02869EC
:1009C00020F010002861207B401E41062069401E57
:1009D00041EA00206169491E08432189491E40EA15
:1009E0000140E8612068B0F5407F0ED1E069401E0B
:1009F000216A491E40EA0121606A401E41EA001155
:100A0000208B401E41EA0040E860D5F8C00020F08D
:100A10008046206E08B1E06D0643C5F8C060216EC7
:100A2000A06C084428B1A06D1DF80000C5F8C800EE
:100A300002E00020C5F8C8000026A06B18B1E06CE9
:100A40001DF800000643E06B20B1206D1DF800008A
:100A500046EA0016206C20B1606D1DF8000046EAE1
:100A60000026C5F8BC602146284600F00DF85AE77C
:100A70000000000000010203040005000000060061
:100A800000000700C02709002DE9F04105468E6AE5
:100A900057480660DFF85CC1A5EB0C0C4FEA9C2CB4
:100AA000DFF85481486E48F82C004B6E886B9862D2
:100AB000C86BD862086C1863886C5863C86C9863FC
:100AC000086DD863486D1864886D586400205862BA
:100AD000CA6A9400088E44EA004445F8844F06EB45
:100AE00082001860086B02449400888E44EA004437
:100AF0006C6006EB82005860486B02EB4002E869CC
:100B0000DFF8F8C000EA0C0444EA8204088F44EAE3
:100B10000044EC6106EB82009860D1F84CC0886B11
:100B200000FB0C22E86ADFF8D4C000EA0C0444EAB7
:100B30008204888F44EA0044EC6206EB8200D860AD
:100B4000D1F850C0C86B00FB0C229000A86206EBE5
:100B500082001861086C4431D1F810C000FB0C22EF
:100B6000E86EDFF89CC000EA0C0444EA82040888BE
:100B700044EA0044EC6606EB82005861086802EB28
:100B80004002E86BDFF87CC000EA0C0444EA82040F
:100B9000888844EA004406EB82009861087F44EAB2
:100BA0000064EC63843DD1F814C0486800FB0C225B
:100BB00006EB8200D861D1F814C0C869443900FB43
:100BC0000C2206EB8200186206F58C40D3F820C098
:100BD000844502D90020BDE8F0811F6802E00020B2
:100BE00038603F1D186AB842F9D80120F3E70000C9
:100BF00090100240005000403C000020030080FFA5
:100C00000300C0FF0300C0C0816921F001018161C0
:100C1000704710B54FF0404000F0FCFA002000F0A3
:100C2000EFFA10BD70B50B4684088607F50E074E27
:100C300056F824107F26AE40B14303EBC206AE4007
:100C40003143024E46F8241070BD000004080140F4
:100C5000F0B50246002346E001279F40D1F800C0CE
:100C60000CEA0705002D3DD09E089F07FC0E02F1FF
:100C70000C0757F826001F27A740B8434F69A74025
:100C8000384302F10C0747F8260090680F7907F007
:100C90001007102F01D1284300E0A84390605C00AA
:100CA00010680327A740B8430F7907F00307A74050
:100CB0003843106050680327A740B8438F68A740A7
:100CC00038435060106A01279F40B843CF689F4067
:100CD00038431062D0690327A740B8430F69A74083
:100CE0003843D0615B1C0F68DF40002FB4D1F0BDEA
:100CF00000210160C16041604161816001210161A9
:100D00007047816270474162704700BFFEE7000094
:100D100000B589B00121084600F086FA0120039051
:100D20000690002004900890022005900120079072
:100D300003A91348FFF78CFF0220019004208DF8CF
:100D400008000C208DF8090001208DF80A0001A888
:100D5000FFF726FB07208DF8000000208DF8020029
:100D60008DF8010001208DF80300684600F036F888
:100D7000002211460120FFF755FF09B000BD000019
:100D800000C0024070B586B006460C4615460121EB
:100D9000284600F049FA00940020039001200190B9
:100DA0000020059002900120049069463046FFF72C
:100DB0004FFF06B070BD70B504460D46294620466B
:100DC000FFF79FFF70BD70B504460D4629462046CB
:100DD000FFF799FF70BD00BFFEE7704770B50F22A7
:100DE000C47814B3164C246804F4E064C4F5E064D9
:100DF000210AC1F1040404F00703CA40447804FA4C
:100E000003F184781440214309010E4C0678A15562
:100E1000047804F01F050124AC4005786D11AD0085
:100E200005F1E025C5F8004109E0047804F01F054C
:100E30000124AC40044D0678761145F8264070BD7B
:100E40000CED00E000E400E080E100E000B5A5B0BA
:100E50000121C80400F0F8F94FF4002000F004FA72
:100E60004FF440700A9000200B9002200C90082054
:100E70000D901F200E9008200F900220109004204B
:100E800011900F20129004201390454814900020D8
:100E900015904448239000201690012017900220BE
:100EA000189006201D900020199006201E9000200A
:100EB0001A9006201F9001201C90062020900020F0
:100EC000229021901B9001208DF8900000208DF839
:100ED000910001208DF892000AA93348FFF710FD18
:100EE0003048016A3148814204D931A000F0A2FCA7
:100EF00000BFFEE74FF080400390002004904FF0C9
:100F00000040059001200690354807906FF0604042
:100F1000089003A92448FFF72BFB01200223082295
:100F2000202100902048FFF765FB4FF470211E48F8
:100F3000FFF773FB01211C48FFF775FB022211022A
:100F40001948FFF760FB012251021748FFF79AFA90
:100F50001548FFF759FE2348234948608007086079
:100F6000002088604FF42020C86080030861C00A18
:100F70004861400088610020C86155200862162041
:100F80008DF8080000208DF80A008DF80900012076
:100F90008DF80B0002A8FFF721FF25B000BD00006F
:100FA000D4000020D404002000500040D4040020CD
:100FB0000D0A204E4F44453120696E6974206572D8
:100FC000726F723A6D6573736167652072616D202F
:100FD000697320746F6F20736D616C6C210D0A0052
:100FE000AAAAAA0A555555154800002000B587B091
:100FF0000121402000F018F94020019000200490C9
:1010000002200290192006900020039001200590F4
:1010100001A90948FFF71CFE8020019000200490E0
:1010200002901A20069001200390059001A9024821
:10103000FFF70EFE07B000BD00D8024000B5A5B016
:101040000121080500F000F94FF4801000F00CF9C0
:101050004FF440700A9000200B9002200C90082062
:101060000D901F200E9008200F9002201090042059
:1010700011900F201290042013903C48149050209F
:1010800015903B48239000201690012017900020D7
:10109000189006201D9019901E9000201A9006208E
:1010A0001F9000201C90062020900020229021906C
:1010B0001B9001208DF8900000208DF891000120F8
:1010C0008DF892000AA92B48FFF71AFC2848016AFC
:1010D0002948814204D929A000F0ACFB00BFFEE7FB
:1010E0004FF080400390002004904FF000400590A6
:1010F000022006902D4807906FF06040089003A9E9
:101100001C48FFF735FA0120022308222021009015
:101110001848FFF76FFA4FF470211648FFF77DFA71
:1011200001211448FFF77FFA022241211148FFF7FD
:1011300003FA022220210F48FFF765FA002220213E
:101140000C48FFF79FF90B48FFF75EFD40208DF834
:10115000080000208DF80A008DF8090001208DF8A4
:101160000B0002A8FFF73AFE25B000BDD400002016
:101170001C05002000540040D40400200D0A204E1D
:101180004F44453220696E6974206572726F723AFD
:101190006D6573736167652072616D20697320747A
:1011A0006F6F20736D616C6C210D0A0055555515DC
:1011B00000B587B00121802000F036F804200190AE
:1011C00000200490022002901B2006900020039033
:1011D0000120059001A90948FFF73AFD0820019078
:1011E0000020049002901C2006900120039005909E
:1011F00001A90248FFF72CFD07B000BD00DC02404A
:101200000146034AD06820F440000843D06070478C
:10121000001002400146034AD06820F070400843A5
:10122000D06070470010024029B1064AD26B0243D9
:10123000044BDA6304E0034AD26B8243014BDA6366
:10124000704700000010024029B1064AD2690243EB
:10125000044BDA6104E0034AD2698243014BDA614C
:1012600070470000001002400449896A0143034AA4
:1012700091621146896A8143916270470010024071
:1012800029B1064A126A0243044B1A6204E0034A77
:10129000126A8243014B1A6270470000001002403C
:1012A0002DE9F04F91B004460020109076A2D2E9CB
:1012B0000030D2E90212CDE90C30CDE90E1276A34E
:1012C0000FCB08AD0FC5784BD3E90020D3E902134B
:1012D00005AD0BC504927548806C20F07C487348BE
:1012E000C06C4FEA90697148006DC0F3806BBBF130
:1012F000000F15D16E484FEA9831A0FB011009F19B
:1013000001020023CDE9001008460199FEF7A2FF73
:1013100004220023CDE90201FEF79CFF064614E0FB
:1013200064484FEA9831A0FB011009F10102002343
:10133000CDE9001008460199FEF78CFF0422002336
:10134000CDE90201FEF786FF0646A66157484068D0
:1013500000F04075B5F1807F02D1564820601EE054
:1013600015B9534820601AE0B5F1007F15D14F48F8
:10137000006C00F44010B0F5801F01D126600EE033
:101380004A48006C00F44010B0F5401F02D14A48B2
:10139000206004E00120109001E045482060109892
:1013A00001282DD141484068C0F3C500042101EB5C
:1013B00040083E48006CC0F3014000F101093B4881
:1013C000006CC0F3814A3948406800F0010BBBF162
:1013D000000F07D135484068C0F38001344820FA37
:1013E00001F606E031484068C0F34001314820FA78
:1013F00001F6B6FBF9F000FB08F020FA0AF62660C9
:101400002A48406800F470252D0C082D00D20025D4
:101410000CA8475D2068F84060602448406800F4EC
:1014200060656D0A0CA8475D6068F840A0601F48C1
:10143000406800F4E0452D0B0CA8475D6068F8405B
:10144000E0601A48806800F00F0508A8475D6068F2
:10145000B0FBF7F060611548806800F070052D0959
:1014600004A830F815701148806800F080008028CA
:1014700004D11148B0FBF7F0206102E0B6FBF7F0B1
:10148000206111B0BDE8F08F0000000001020304EC
:1014900001020304060708090102030406080A0CF6
:1014A0001020202020202020901F00080010024043
:1014B00000127A000024F400001C4E0E7047000059
:1014C00070B50246244CE46944F00104224DEC61FD
:1014D000AC04216A21F47F6141F09001216220680F
:1014E00020F4387010432060246844F01004AD04E8
:1014F0002C60002300E05B1CB3F5FA6FFBD300BF48
:101500004FF08044646804F00404002CF8D100BF5C
:1015100000BF124D2D6845F08075104E35600025D6
:101520000F4E756035462D6845F00105356000BFEA
:1015300035466D680B4EAC1900BF094D6D68A5426C
:10154000FBD300BF054D2D6825F08075034E356037
:1015500000BF00BF70BD000000100240FCED00E0C5
:10156000001000E080A903001EB52DA41CCC8DE85E
:101570001C002E4A106820F0070040F005001060A3
:101580002B4A52682A4B5A601A46526842F48042EB
:101590005A601A46526842F400625A601A4650680D
:1015A000116C6FF30800234A114000BF40F068003F
:1015B00000F4FC72502A03D846F2403211430AE08C
:1015C00000F4FC72902A03D846F24072114302E004
:1015D00046F64042114300BF9DF8012041EA824196
:1015E000134A50601164126842F00102104B1A60F5
:1015F00000BF0F4A126802F00202002AF9D00C4A1A
:10160000506820F0406040F00060506000BF084A21
:10161000526802F04072B2F1007FF8D11EBD0000A6
:101620000000010102020202030300000020024048
:10163000001002400F80F0FF7047000010B52C48EA
:10164000006840F470002A4908602A48006840F0A9
:1016500004002849086000BF2648006800F0080020
:101660000828F9D12348406820F0406021494860AB
:1016700000BF2048406800F040700028F9D11D48A4
:1016800040681D4908401B4948600846006820F032
:10169000D100086000BF1748006800F0020002286F
:1016A000F9D0144840686FF30800124948601348A5
:1016B00008644FF4E04088607120C86010480861F9
:1016C000002008630F48006840F010000D490860D2
:1016D0000846006820F080000860FFF745FF4FF0E3
:1016E00000600349803908608014FFF7E9FE10BDEF
:1016F00088ED00E000100240FF01F0334663040073
:101700000000FF010020024021B1026842F0010206
:10171000026003E0026822F00102026070470246A4
:10172000D3680B400BB1012000E00020704700009F
:101730002DE9F04788B005460F462E466C6824F028
:101740006004B86804436C602C6832480440F9684F
:1017500078680843B96908433969084304432C6031
:10176000AC6824F0050478690443AC6001A8FFF775
:1017700097FD2948864208D02848864205D0284847
:10178000864202D02748864202D1DDF8109001E05F
:10179000DDF80C90286800F0806048B94FEA9900A5
:1017A00000EBC00101EB00103968B0FBF1FA08E072
:1017B0004FEA590000EBC00101EB00103968B0FBA3
:1017C000F1FA6420BAFBF0F004012009642101FB66
:1017D00010A8286800F0806078B1322000EBC800C3
:1017E000B0FBF1F000F00F080120B0EBD80F01D1F1
:1017F00010340BE044EA080408E0322000EB081043
:101800006421B0FBF1F000F01F0004446C6108B0EB
:10181000BDE8F087C1FFFFFB001C0140002801402C
:101820000020014000240140C1F30802026170471A
:1018300000BFFEE70FB4054B10B503A9044A029898
:1018400000F018F810BC5DF814FB0000DD1C000867
:101850003800002002E008C8121F08C1002AFAD18F
:1018600070477047002001E001C1121F002AFBD120
:10187000704700002DE9FF4F8DB00F46054600264A
:1018800006E025280BD0DDE90F1290476D1C761C71
:1018900028780028F5D111B03046BDE8F08F00243B
:1018A000A246A1460122E94900E0044315F8013FA0
:1018B000203B02FA03F00842F7D128782A2810D0FA
:1018C0006FF02F022878A0F13001092914D80AEB13
:1018D0008A0102EB410144F0020400EB010A6D1C95
:1018E000F0E701CF5FEA000A03D544F40054CAF1DF
:1018F000000A44F002046D1C28782E2817D115F830
:10190000010F44F004042A280ED06FF02F0228782B
:10191000A0F1300109290AD809EB890102EB410144
:1019200000EB01096D1CF2E757F8049B6D1C287849
:101930006C280FD006DC4C2817D068280DD06A28F8
:1019400014D104E0742810D07A280FD10DE044F4AB
:1019500000140AE044F4801401E044F4401469786F
:10196000814202D104F580146D1C6D1C28786E280C
:101970001ED00CDC632830D004DC00288BD0582823
:1019800011D19FE0642867D069280CD164E07328E6
:101990002DD004DC6F2872D0702804D194E0752813
:1019A0006ED078286DD0DDE90F129047761C4BE1A0
:1019B000C4F30250022806D0032809D0042801CF1E
:1019C00009D0066040E101CFF117C0E900613BE1B9
:1019D00001CF068038E1067036E117F8040B8DF868
:1019E000000000208DF80100EB46012003E057F8CD
:1019F00004BB4FF0FF3061074FF0000102D40DE04F
:101A000008F10101884649450FDA8045F8DB1BF8EB
:101A100008100029F4D108E008F10101884681424C
:101A2000FADB1BF808100029F6D1DDE90F23AAEB39
:101A300008008146214600F031F9304400EB0806E9
:101A400004E0DDE90F121BF8010B9047B8F1010823
:101A5000F7D221464846F2E00A21C4F302524FF081
:101A6000000B0891022A04D001CFC117032A09D024
:101A70000AE0FF1D27F00707F7E8020108E02CE065
:101A80001EE01FE000B2C117042A01D140B2C11705
:101A9000021E71F1000206DA0023D0EB030063EBB3
:101AA00001012D2202E0220504D52B228DF82420ED
:101AB000012203E0E20701D02022F7E7904653E03D
:101AC0000A210BE0102109E010214FF0000B44F037
:101AD00004044FF00809089103E008214FF0000BBF
:101AE0000891C4F30252022A04D001CF0021032A34
:101AF00006D006E0FF1D27F00707F7E8020103E024
:101B000080B2042A00D1C0B24FF0000822072BD5C2
:101B10002A78702A07D0DDF820C08CF0100C5CEA1F
:101B20000B0C05D00EE040228DF82420012208E0A5
:101B300050EA010306D030238DF824308DF825209B
:101B400002229046089B83F0080353EA0B030BD153
:101B500050EA010201D1620706D530228DF8242017
:101B60004FF00108A9F101092A78582A04D038A2B7
:101B70000B9208AA0A920BE03AA2F9E75B46089A90
:101B8000FEF768FB0B9B9B5C0A9A521E0A9213702D
:101B900050EA0102F2D10A98ADEB000000F1200BEF
:101BA000600702D524F4803401E04FF00109D945E3
:101BB00002DDA9EB0B0000E0002000EB0B0141442B
:101BC0000890AAEB010AE00306D4DDE90F232146C1
:101BD000504600F063F806444FF0000908E009A9F8
:101BE00011F80900DDE90F12904709F10109761C8F
:101BF000C145F4DBE0030CD5DDE90F232146504657
:101C000000F04CF8064404E0DDE90F123020904764
:101C1000761C0899481E08900029F5DC08E00A980F
:101C20000A990078491C0A91DDE90F129047761C49
:101C3000BBF10001ABF1010BF1DC21465046DDE9BF
:101C40000F2300F019F806446D1C21E60928010055
:101C50003031323334353637383961626364656622
:101C600000000000303132333435363738394142E4
:101C700043444546000000002DE9F041044600259C
:101C80001E461746880404D405E039462020B04794
:101C90006D1C641EF9D52846BDE8F0812DE9F041A0
:101CA000044600251E469046C80301D5302700E0B3
:101CB0002027880404D505E041463846B0476D1C0E
:101CC000641EF9D52846BDE8F08110B50346002012
:101CD00001E01A54401C8842FBD310BD70B5044685
:101CE0000D460D2C03D101201449086017E00A2C81
:101CF00012D11248006858B900BF4FF480711048E3
:101D0000FFF70DFD0028F8D00D210D48FFF78CFDE1
:101D100000200A49086002E000200849086000BF6E
:101D20004FF480710648FFF7FAFC0028F8D0E1B2C2
:101D30000348FFF779FD204670BD00003400002005
:101D4000001C014000B58DB007A8FEF7D1FF0121AE
:101D50000846FFF795FA01212020FFF791FA0121AB
:101D60000846FFF761FA4FF40070079002200890D0
:101D700005200C9007A91048FEF76AFF4FF4806019
:101D8000079005200C9007A90B48FEF761FF4FF460
:101D9000E1300090002001900290039006900590A1
:101DA0000620049069460548FFF7C2FC012103485C
:101DB000FFF7AAFC0DB000BD00C00240001C0140AE
:101DC00008B5FFF7BFFF474909684808FEF7B9FAA9
:101DD00045A0FFF72FFD012208214A48FEF7D2FF58
:101DE000012211024748FEF7CDFFFEF791FFFEF7F3
:101DF00010FFFFF7FBF8FFF7DBF9FFF727F8FFF716
:101E00001DF96EE04048006828B308213D48FEF700
:101E1000DAFF3E483E490968421801233D493E48E1
:101E2000FEF764FB01213C48FEF770FC384800686F
:101E300010303749086008460068202801D3002088
:101E4000086036A0FFF7F6FC08212E48FEF7B3FF26
:101E500000202D4908603848006828B137A0FFF7F6
:101E6000E9FC0020344908603C48006800B938E0CB
:101E700000203A4908604FF480712248FEF7A3FF22
:101E800023E0EE2210213648FFF71FFF344B354A7E
:101E900041213548FEF75AFC3248C269416833484F
:101EA000FFF7C8FC00240EE02D49E01C085C0D463D
:101EB0000090A01C2B5C601C2A5C0846015D2CA0D5
:101EC000FFF7B8FC241D102CEED341212648FEF765
:101ED0002FFC0028D5D14FF480710A48FEF76BFF24
:101EE00000BF8FE7000000200D0A20464443414E0A
:101EF00020696E746572727570742064656D6F21EF
:101F00000D0A000000C002402C0000200400002048
:101F10002400002048000020005000400D0A204E00
:101F20004F4445312073656E642061206672616D97
:101F300065210D0A00000000300000200D0A204E2F
:101F40004F444531207472616E736D697420636F04
:101F50006E706C65746564210D0A00002800002015
:101F6000940000206C00002000540040B01F0008C6
:101F700009203078253032782C3078253032782C92
:101F80003078253032782C3078253032780D0A00C0
:101F90000100020003000400060008000A000C0013
:101FA0000001020304050607080C10141820304035
:101FB0000D0A204E4F444532205278204649464F64
:101FC000312072656369657665642061206672619F
:101FD0006D650D0A49443D3078253033782C5258D0
:101FE00054533D3078253034782C646174613A0D57
:101FF0000A00000014200008000000203C0000003F
:1020000054180008502000083C0000202C15000047
:1020100064180008001C4E0E0112233445566778E0
:10202000899AABBCCDDEEFF00011223344556677C0
:102030008899AABBCCDDEEFF000000000000000084
:102040000000000000000000000000000000000090
:0400000508000219D4
:00000001FF
